{
  "contractName": "Flashloan",
  "abi": [
    {
      "inputs": [
        {
          "internalType": "address",
          "name": "kyberAddress",
          "type": "address"
        },
        {
          "internalType": "address",
          "name": "uniswapAddress",
          "type": "address"
        },
        {
          "internalType": "address",
          "name": "wethAddress",
          "type": "address"
        },
        {
          "internalType": "address",
          "name": "daiAddress",
          "type": "address"
        },
        {
          "internalType": "address",
          "name": "beneficiaryAddress",
          "type": "address"
        }
      ],
      "payable": false,
      "stateMutability": "nonpayable",
      "type": "constructor"
    },
    {
      "anonymous": false,
      "inputs": [
        {
          "indexed": false,
          "internalType": "enum Flashloan.Direction",
          "name": "direction",
          "type": "uint8"
        },
        {
          "indexed": false,
          "internalType": "uint256",
          "name": "profit",
          "type": "uint256"
        },
        {
          "indexed": false,
          "internalType": "uint256",
          "name": "date",
          "type": "uint256"
        }
      ],
      "name": "NewArbitrage",
      "type": "event"
    },
    {
      "payable": true,
      "stateMutability": "payable",
      "type": "fallback"
    },
    {
      "constant": false,
      "inputs": [
        {
          "internalType": "address",
          "name": "sender",
          "type": "address"
        },
        {
          "components": [
            {
              "internalType": "address",
              "name": "owner",
              "type": "address"
            },
            {
              "internalType": "uint256",
              "name": "number",
              "type": "uint256"
            }
          ],
          "internalType": "struct Account.Info",
          "name": "account",
          "type": "tuple"
        },
        {
          "internalType": "bytes",
          "name": "data",
          "type": "bytes"
        }
      ],
      "name": "callFunction",
      "outputs": [],
      "payable": false,
      "stateMutability": "nonpayable",
      "type": "function"
    },
    {
      "constant": false,
      "inputs": [
        {
          "internalType": "address",
          "name": "_solo",
          "type": "address"
        },
        {
          "internalType": "address",
          "name": "_token",
          "type": "address"
        },
        {
          "internalType": "uint256",
          "name": "_amount",
          "type": "uint256"
        },
        {
          "internalType": "enum Flashloan.Direction",
          "name": "_direction",
          "type": "uint8"
        }
      ],
      "name": "initiateFlashloan",
      "outputs": [],
      "payable": false,
      "stateMutability": "nonpayable",
      "type": "function"
    }
  ],
  "bytecode": "0x60806040523480156200001157600080fd5b50604051620028c4380380620028c483398181016040526200003791908101906200019d565b846000806101000a81548173ffffffffffffffffffffffffffffffffffffffff021916908373ffffffffffffffffffffffffffffffffffffffff16021790555083600160006101000a81548173ffffffffffffffffffffffffffffffffffffffff021916908373ffffffffffffffffffffffffffffffffffffffff16021790555082600260006101000a81548173ffffffffffffffffffffffffffffffffffffffff021916908373ffffffffffffffffffffffffffffffffffffffff16021790555081600360006101000a81548173ffffffffffffffffffffffffffffffffffffffff021916908373ffffffffffffffffffffffffffffffffffffffff16021790555080600460006101000a81548173ffffffffffffffffffffffffffffffffffffffff021916908373ffffffffffffffffffffffffffffffffffffffff16021790555050505050506200026d565b600081519050620001978162000253565b92915050565b600080600080600060a08688031215620001b657600080fd5b6000620001c68882890162000186565b9550506020620001d98882890162000186565b9450506040620001ec8882890162000186565b9350506060620001ff8882890162000186565b9250506080620002128882890162000186565b9150509295509295909350565b60006200022c8262000233565b9050919050565b600073ffffffffffffffffffffffffffffffffffffffff82169050919050565b6200025e816200021f565b81146200026a57600080fd5b50565b612647806200027d6000396000f3fe6080604052600436106100295760003560e01c80638b4187131461002b578063c013147614610054575b005b34801561003757600080fd5b50610052600480360361004d919081019061197a565b61007d565b005b34801561006057600080fd5b5061007b60048036036100769190810190611917565b610e6d565b005b61008561154f565b818060200190516100999190810190611a4b565b90506000600360009054906101000a900473ffffffffffffffffffffffffffffffffffffffff1673ffffffffffffffffffffffffffffffffffffffff166370a08231306040518263ffffffff1660e01b81526004016100f89190611fad565b60206040518083038186803b15801561011057600080fd5b505afa158015610124573d6000803e3d6000fd5b505050506040513d601f19601f820116820180604052506101489190810190611a74565b90506000600181111561015757fe5b8260000151600181111561016757fe5b141561068e57600360009054906101000a900473ffffffffffffffffffffffffffffffffffffffff1673ffffffffffffffffffffffffffffffffffffffff1663095ea7b36000809054906101000a900473ffffffffffffffffffffffffffffffffffffffff16836040518363ffffffff1660e01b81526004016101eb929190611fff565b602060405180830381600087803b15801561020557600080fd5b505af1158015610219573d6000803e3d6000fd5b505050506040513d601f19601f8201168201806040525061023d9190810190611a22565b5060008060009054906101000a900473ffffffffffffffffffffffffffffffffffffffff1673ffffffffffffffffffffffffffffffffffffffff1663809a9e55600360009054906101000a900473ffffffffffffffffffffffffffffffffffffffff1673eeeeeeeeeeeeeeeeeeeeeeeeeeeeeeeeeeeeeeee856040518463ffffffff1660e01b81526004016102d49392919061205f565b604080518083038186803b1580156102eb57600080fd5b505afa1580156102ff573d6000803e3d6000fd5b505050506040513d601f19601f820116820180604052506103239190810190611a9d565b5090506000809054906101000a900473ffffffffffffffffffffffffffffffffffffffff1673ffffffffffffffffffffffffffffffffffffffff16633bba21dc600360009054906101000a900473ffffffffffffffffffffffffffffffffffffffff1684846040518463ffffffff1660e01b81526004016103a6939291906120bf565b602060405180830381600087803b1580156103c057600080fd5b505af11580156103d4573d6000803e3d6000fd5b505050506040513d601f19601f820116820180604052506103f89190810190611a74565b506060600260405190808252806020026020018201604052801561042b5781602001602082028038833980820191505090505b509050600260009054906101000a900473ffffffffffffffffffffffffffffffffffffffff168160008151811061045e57fe5b602002602001019073ffffffffffffffffffffffffffffffffffffffff16908173ffffffffffffffffffffffffffffffffffffffff1681525050600360009054906101000a900473ffffffffffffffffffffffffffffffffffffffff16816001815181106104c857fe5b602002602001019073ffffffffffffffffffffffffffffffffffffffff16908173ffffffffffffffffffffffffffffffffffffffff16815250506060600160009054906101000a900473ffffffffffffffffffffffffffffffffffffffff1673ffffffffffffffffffffffffffffffffffffffff1663d06ca61f47846040518363ffffffff1660e01b81526004016105619291906121c3565b60006040518083038186803b15801561057957600080fd5b505afa15801561058d573d6000803e3d6000fd5b505050506040513d6000823e3d601f19601f820116820180604052506105b691908101906119e1565b9050600160009054906101000a900473ffffffffffffffffffffffffffffffffffffffff1673ffffffffffffffffffffffffffffffffffffffff16637ff36ab5478360018151811061060457fe5b60200260200101518530426040518663ffffffff1660e01b815260040161062e94939291906121f3565b6000604051808303818588803b15801561064757600080fd5b505af115801561065b573d6000803e3d6000fd5b50505050506040513d6000823e3d601f19601f8201168201806040525061068591908101906119e1565b50505050610bac565b600360009054906101000a900473ffffffffffffffffffffffffffffffffffffffff1673ffffffffffffffffffffffffffffffffffffffff1663095ea7b3600160009054906101000a900473ffffffffffffffffffffffffffffffffffffffff16836040518363ffffffff1660e01b815260040161070d929190611fff565b602060405180830381600087803b15801561072757600080fd5b505af115801561073b573d6000803e3d6000fd5b505050506040513d601f19601f8201168201806040525061075f9190810190611a22565b50606060026040519080825280602002602001820160405280156107925781602001602082028038833980820191505090505b509050600360009054906101000a900473ffffffffffffffffffffffffffffffffffffffff16816000815181106107c557fe5b602002602001019073ffffffffffffffffffffffffffffffffffffffff16908173ffffffffffffffffffffffffffffffffffffffff1681525050600260009054906101000a900473ffffffffffffffffffffffffffffffffffffffff168160018151811061082f57fe5b602002602001019073ffffffffffffffffffffffffffffffffffffffff16908173ffffffffffffffffffffffffffffffffffffffff16815250506060600160009054906101000a900473ffffffffffffffffffffffffffffffffffffffff1673ffffffffffffffffffffffffffffffffffffffff1663d06ca61f84846040518363ffffffff1660e01b81526004016108c89291906121c3565b60006040518083038186803b1580156108e057600080fd5b505afa1580156108f4573d6000803e3d6000fd5b505050506040513d6000823e3d601f19601f8201168201806040525061091d91908101906119e1565b9050600160009054906101000a900473ffffffffffffffffffffffffffffffffffffffff1673ffffffffffffffffffffffffffffffffffffffff166318cbafe5848360018151811061096b57fe5b60200260200101518530426040518663ffffffff1660e01b815260040161099695949392919061223f565b600060405180830381600087803b1580156109b057600080fd5b505af11580156109c4573d6000803e3d6000fd5b505050506040513d6000823e3d601f19601f820116820180604052506109ed91908101906119e1565b5060008060009054906101000a900473ffffffffffffffffffffffffffffffffffffffff1673ffffffffffffffffffffffffffffffffffffffff1663809a9e5573eeeeeeeeeeeeeeeeeeeeeeeeeeeeeeeeeeeeeeee600360009054906101000a900473ffffffffffffffffffffffffffffffffffffffff16476040518463ffffffff1660e01b8152600401610a849392919061205f565b604080518083038186803b158015610a9b57600080fd5b505afa158015610aaf573d6000803e3d6000fd5b505050506040513d601f19601f82011682018060405250610ad39190810190611a9d565b5090506000809054906101000a900473ffffffffffffffffffffffffffffffffffffffff1673ffffffffffffffffffffffffffffffffffffffff16637a2a045647600360009054906101000a900473ffffffffffffffffffffffffffffffffffffffff16846040518463ffffffff1660e01b8152600401610b55929190612096565b6020604051808303818588803b158015610b6e57600080fd5b505af1158015610b82573d6000803e3d6000fd5b50505050506040513d601f19601f82011682018060405250610ba79190810190611a74565b505050505b8160200151600360009054906101000a900473ffffffffffffffffffffffffffffffffffffffff1673ffffffffffffffffffffffffffffffffffffffff166370a08231306040518263ffffffff1660e01b8152600401610c0c9190611fad565b60206040518083038186803b158015610c2457600080fd5b505afa158015610c38573d6000803e3d6000fd5b505050506040513d601f19601f82011682018060405250610c5c9190810190611a74565b1015610c9d576040517f08c379a0000000000000000000000000000000000000000000000000000000008152600401610c949061216d565b60405180910390fd5b60008260200151600360009054906101000a900473ffffffffffffffffffffffffffffffffffffffff1673ffffffffffffffffffffffffffffffffffffffff166370a08231306040518263ffffffff1660e01b8152600401610cff9190611fad565b60206040518083038186803b158015610d1757600080fd5b505afa158015610d2b573d6000803e3d6000fd5b505050506040513d601f19601f82011682018060405250610d4f9190810190611a74565b039050600360009054906101000a900473ffffffffffffffffffffffffffffffffffffffff1673ffffffffffffffffffffffffffffffffffffffff166323b872dd30600460009054906101000a900473ffffffffffffffffffffffffffffffffffffffff16846040518463ffffffff1660e01b8152600401610dd393929190611fc8565b602060405180830381600087803b158015610ded57600080fd5b505af1158015610e01573d6000803e3d6000fd5b505050506040513d601f19601f82011682018060405250610e259190810190611a22565b507fa89b78c8d1240154beaf4b865d2d7cb794ac0f358c618aef3de102cf4a4ee42d83600001518242604051610e5d939291906120f6565b60405180910390a1505050505050565b60008490506000610e7e86866110d6565b90506000610e8b85611288565b90508573ffffffffffffffffffffffffffffffffffffffff1663095ea7b388836040518363ffffffff1660e01b8152600401610ec8929190611fff565b602060405180830381600087803b158015610ee257600080fd5b505af1158015610ef6573d6000803e3d6000fd5b505050506040513d601f19601f82011682018060405250610f1a9190810190611a22565b5060606003604051908082528060200260200182016040528015610f5857816020015b610f45611574565b815260200190600190039081610f3d5790505b509050610f6583876112a5565b81600081518110610f7257fe5b6020026020010181905250610fc46040518060400160405280876001811115610f9757fe5b815260200184815250604051602001610fb0919061218d565b60405160208183030381529060405261135e565b81600181518110610fd157fe5b6020026020010181905250610fe68383611408565b81600281518110610ff357fe5b60200260200101819052506060600160405190808252806020026020018201604052801561103b57816020015b6110286115e0565b8152602001906001900390816110205790505b5090506110466114c1565b8160008151811061105357fe5b60200260200101819052508473ffffffffffffffffffffffffffffffffffffffff1663a67a6a4582846040518363ffffffff1660e01b8152600401611099929190612028565b600060405180830381600087803b1580156110b357600080fd5b505af11580156110c7573d6000803e3d6000fd5b50505050505050505050505050565b60008083905060008173ffffffffffffffffffffffffffffffffffffffff1663295c39a56040518163ffffffff1660e01b815260040160206040518083038186803b15801561112457600080fd5b505afa158015611138573d6000803e3d6000fd5b505050506040513d601f19601f8201168201806040525061115c9190810190611a74565b9050600080600090505b82811015611246578373ffffffffffffffffffffffffffffffffffffffff1663062bd3e9826040518263ffffffff1660e01b81526004016111a791906121a8565b60206040518083038186803b1580156111bf57600080fd5b505afa1580156111d3573d6000803e3d6000fd5b505050506040513d601f19601f820116820180604052506111f791908101906118ee565b91508573ffffffffffffffffffffffffffffffffffffffff168273ffffffffffffffffffffffffffffffffffffffff1614156112395780945050505050611282565b8080600101915050611166565b506040517f08c379a00000000000000000000000000000000000000000000000000000000081526004016112799061214d565b60405180910390fd5b92915050565b600061129e6002836114fa90919063ffffffff16565b9050919050565b6112ad611610565b604051806101000160405280600160088111156112c657fe5b8152602001600081526020016040518060800160405280600015158152602001600060018111156112f357fe5b81526020016000600181111561130557fe5b8152602001858152508152602001848152602001600081526020013073ffffffffffffffffffffffffffffffffffffffff1681526020016000815260200160405180602001604052806000815250815250905092915050565b611366611610565b60405180610100016040528060088081111561137e57fe5b8152602001600081526020016040518060800160405280600015158152602001600060018111156113ab57fe5b8152602001600060018111156113bd57fe5b81526020016000815250815260200160008152602001600081526020013073ffffffffffffffffffffffffffffffffffffffff16815260200160008152602001838152509050919050565b611410611610565b6040518061010001604052806000600881111561142957fe5b81526020016000815260200160405180608001604052806001151581526020016000600181111561145657fe5b81526020016000600181111561146857fe5b8152602001858152508152602001848152602001600081526020013073ffffffffffffffffffffffffffffffffffffffff1681526020016000815260200160405180602001604052806000815250815250905092915050565b6114c961167c565b60405180604001604052803073ffffffffffffffffffffffffffffffffffffffff1681526020016001815250905090565b600080828401905083811015611545576040517f08c379a000000000000000000000000000000000000000000000000000000000815260040161153c9061212d565b60405180910390fd5b8091505092915050565b60405180604001604052806000600181111561156757fe5b8152602001600081525090565b6040518061010001604052806000600881111561158d57fe5b8152602001600081526020016115a16116ac565b81526020016000815260200160008152602001600073ffffffffffffffffffffffffffffffffffffffff16815260200160008152602001606081525090565b6040518060400160405280600073ffffffffffffffffffffffffffffffffffffffff168152602001600081525090565b6040518061010001604052806000600881111561162957fe5b81526020016000815260200161163d6116ac565b81526020016000815260200160008152602001600073ffffffffffffffffffffffffffffffffffffffff16815260200160008152602001606081525090565b6040518060400160405280600073ffffffffffffffffffffffffffffffffffffffff168152602001600081525090565b6040518060800160405280600015158152602001600060018111156116cd57fe5b8152602001600060018111156116df57fe5b8152602001600081525090565b6000813590506116fb816125af565b92915050565b600081519050611710816125af565b92915050565b600082601f83011261172757600080fd5b815161173a611735826122c6565b612299565b9150818183526020840193506020810190508385602084028201111561175f57600080fd5b60005b8381101561178f578161177588826118d9565b845260208401935060208301925050600181019050611762565b5050505092915050565b6000815190506117a8816125c6565b92915050565b600082601f8301126117bf57600080fd5b81356117d26117cd826122ee565b612299565b915080825260208301602083018583830111156117ee57600080fd5b6117f9838284612528565b50505092915050565b600081359050611811816125dd565b92915050565b600081519050611826816125dd565b92915050565b60006040828403121561183e57600080fd5b6118486040612299565b9050600061185884828501611817565b600083015250602061186c848285016118d9565b60208301525092915050565b60006040828403121561188a57600080fd5b6118946040612299565b905060006118a4848285016116ec565b60008301525060206118b8848285016118c4565b60208301525092915050565b6000813590506118d3816125ed565b92915050565b6000815190506118e8816125ed565b92915050565b60006020828403121561190057600080fd5b600061190e84828501611701565b91505092915050565b6000806000806080858703121561192d57600080fd5b600061193b878288016116ec565b945050602061194c878288016116ec565b935050604061195d878288016118c4565b925050606061196e87828801611802565b91505092959194509250565b60008060006080848603121561198f57600080fd5b600061199d868287016116ec565b93505060206119ae86828701611878565b925050606084013567ffffffffffffffff8111156119cb57600080fd5b6119d7868287016117ae565b9150509250925092565b6000602082840312156119f357600080fd5b600082015167ffffffffffffffff811115611a0d57600080fd5b611a1984828501611716565b91505092915050565b600060208284031215611a3457600080fd5b6000611a4284828501611799565b91505092915050565b600060408284031215611a5d57600080fd5b6000611a6b8482850161182c565b91505092915050565b600060208284031215611a8657600080fd5b6000611a94848285016118d9565b91505092915050565b60008060408385031215611ab057600080fd5b6000611abe858286016118d9565b9250506020611acf858286016118d9565b9150509250929050565b6000611ae58383611b2c565b60208301905092915050565b6000611afd8383611e29565b905092915050565b6000611b118383611f60565b60408301905092915050565b611b2681612486565b82525050565b611b35816123f2565b82525050565b611b44816123f2565b82525050565b6000611b558261234a565b611b5f818561239d565b9350611b6a8361231a565b8060005b83811015611b9b578151611b828882611ad9565b9750611b8d83612376565b925050600181019050611b6e565b5085935050505092915050565b6000611bb382612355565b611bbd81856123ae565b935083602082028501611bcf8561232a565b8060005b85811015611c0b5784840389528151611bec8582611af1565b9450611bf783612383565b925060208a01995050600181019050611bd3565b50829750879550505050505092915050565b6000611c2882612360565b611c3281856123bf565b9350611c3d8361233a565b8060005b83811015611c6e578151611c558882611b05565b9750611c6083612390565b925050600181019050611c41565b5085935050505092915050565b611c8481612404565b82525050565b6000611c958261236b565b611c9f81856123d0565b9350611caf818560208601612537565b611cb88161256a565b840191505092915050565b611ccc81612498565b82525050565b611cdb816124bc565b82525050565b611cea816124ce565b82525050565b611cf9816124e0565b82525050565b611d08816124f2565b82525050565b611d17816124f2565b82525050565b6000611d2a601b836123e1565b91507f536166654d6174683a206164646974696f6e206f766572666c6f7700000000006000830152602082019050919050565b6000611d6a6024836123e1565b91507f4e6f206d61726b6574496420666f756e6420666f722070726f7669646564207460008301527f6f6b656e000000000000000000000000000000000000000000000000000000006020830152604082019050919050565b6000611dd0602b836123e1565b91507f4e6f7420656e6f7567682044414920746f207265706179207468652064792f6460008301527f7820666c6173686c6f616e0000000000000000000000000000000000000000006020830152604082019050919050565b600061016083016000830151611e426000860182611cd2565b506020830151611e556020860182611f8f565b506040830151611e686040860182611f0b565b506060830151611e7b60c0860182611f8f565b506080830151611e8e60e0860182611f8f565b5060a0830151611ea2610100860182611b2c565b5060c0830151611eb6610120860182611f8f565b5060e0830151848203610140860152611ecf8282611c8a565b9150508091505092915050565b604082016000820151611ef26000850182611cff565b506020820151611f056020850182611f8f565b50505050565b608082016000820151611f216000850182611c7b565b506020820151611f346020850182611ce1565b506040820151611f476040850182611cf0565b506060820151611f5a6060850182611f8f565b50505050565b604082016000820151611f766000850182611b2c565b506020820151611f896020850182611f8f565b50505050565b611f988161247c565b82525050565b611fa78161247c565b82525050565b6000602082019050611fc26000830184611b1d565b92915050565b6000606082019050611fdd6000830186611b1d565b611fea6020830185611b3b565b611ff76040830184611f9e565b949350505050565b60006040820190506120146000830185611b3b565b6120216020830184611f9e565b9392505050565b600060408201905081810360008301526120428185611c1d565b905081810360208301526120568184611ba8565b90509392505050565b60006060820190506120746000830186611cc3565b6120816020830185611cc3565b61208e6040830184611f9e565b949350505050565b60006040820190506120ab6000830185611cc3565b6120b86020830184611f9e565b9392505050565b60006060820190506120d46000830186611cc3565b6120e16020830185611f9e565b6120ee6040830184611f9e565b949350505050565b600060608201905061210b6000830186611d0e565b6121186020830185611f9e565b6121256040830184611f9e565b949350505050565b6000602082019050818103600083015261214681611d1d565b9050919050565b6000602082019050818103600083015261216681611d5d565b9050919050565b6000602082019050818103600083015261218681611dc3565b9050919050565b60006040820190506121a26000830184611edc565b92915050565b60006020820190506121bd6000830184611f9e565b92915050565b60006040820190506121d86000830185611f9e565b81810360208301526121ea8184611b4a565b90509392505050565b60006080820190506122086000830187611f9e565b818103602083015261221a8186611b4a565b90506122296040830185611b1d565b6122366060830184611f9e565b95945050505050565b600060a0820190506122546000830188611f9e565b6122616020830187611f9e565b81810360408301526122738186611b4a565b90506122826060830185611b1d565b61228f6080830184611f9e565b9695505050505050565b6000604051905081810181811067ffffffffffffffff821117156122bc57600080fd5b8060405250919050565b600067ffffffffffffffff8211156122dd57600080fd5b602082029050602081019050919050565b600067ffffffffffffffff82111561230557600080fd5b601f19601f8301169050602081019050919050565b6000819050602082019050919050565b6000819050602082019050919050565b6000819050602082019050919050565b600081519050919050565b600081519050919050565b600081519050919050565b600081519050919050565b6000602082019050919050565b6000602082019050919050565b6000602082019050919050565b600082825260208201905092915050565b600082825260208201905092915050565b600082825260208201905092915050565b600082825260208201905092915050565b600082825260208201905092915050565b60006123fd8261245c565b9050919050565b60008115159050919050565b600081905061241e8261257b565b919050565b600081905061243182612588565b919050565b600081905061244482612595565b919050565b6000819050612457826125a2565b919050565b600073ffffffffffffffffffffffffffffffffffffffff82169050919050565b6000819050919050565b600061249182612504565b9050919050565b60006124a3826124aa565b9050919050565b60006124b58261245c565b9050919050565b60006124c782612410565b9050919050565b60006124d982612423565b9050919050565b60006124eb82612436565b9050919050565b60006124fd82612449565b9050919050565b600061250f82612516565b9050919050565b60006125218261245c565b9050919050565b82818337600083830152505050565b60005b8381101561255557808201518184015260208101905061253a565b83811115612564576000848401525b50505050565b6000601f19601f8301169050919050565b6009811061258557fe5b50565b6002811061259257fe5b50565b6002811061259f57fe5b50565b600281106125ac57fe5b50565b6125b8816123f2565b81146125c357600080fd5b50565b6125cf81612404565b81146125da57600080fd5b50565b600281106125ea57600080fd5b50565b6125f68161247c565b811461260157600080fd5b5056fea365627a7a72315820532337515c413a42c3350284cad6054b28b34778f5f3bea6e42d658852a714766c6578706572696d656e74616cf564736f6c63430005110040",
  "source": "pragma solidity ^0.5.0;\r\npragma experimental ABIEncoderV2;\r\n\r\nimport \"@studydefi/money-legos/dydx/contracts/DydxFlashloanBase.sol\";\r\nimport \"@studydefi/money-legos/dydx/contracts/ICallee.sol\";\r\n\r\nimport { KyberNetworkProxy as IKyberNetworkProxy } from '@studydefi/money-legos/kyber/contracts/KyberNetworkProxy.sol';\r\n\r\nimport \"@openzeppelin/contracts/token/ERC20/IERC20.sol\";\r\nimport \"./IUniswapV2Router02.sol\";\r\nimport \"./IWeth.sol\";\r\n\r\n\r\ncontract Flashloan is ICallee, DydxFlashloanBase {\r\n    // Direction for the arbitrage\r\n    enum Direction { \r\n        KyberToUniswap, // 0 -> Buy ETH on Kyber, Sell it on Uniswap\r\n        UniswapToKyber  // 1 -> But ETH on Uniswap, Sell in on Kyber\r\n    }\r\n\r\n    // Custom Data that will be sent over the call action\r\n    struct ArbInfo {\r\n        Direction direction;\r\n        uint repayAmount;\r\n    }\r\n\r\n    IKyberNetworkProxy kyber;\r\n    IUniswapV2Router02 uniswap;\r\n    IWeth weth;\r\n    IERC20 dai;\r\n    address constant KYBER_ETH_ADDRESS = 0xEeeeeEeeeEeEeeEeEeEeeEEEeeeeEeeeeeeeEEeE;\r\n    address beneficiary;\r\n\r\n    event NewArbitrage(\r\n        Direction direction,\r\n        uint profit,\r\n        uint date\r\n    );\r\n\r\n    constructor(\r\n        address kyberAddress,\r\n        address uniswapAddress,\r\n        address wethAddress,\r\n        address daiAddress,\r\n        address beneficiaryAddress\r\n    ) public {\r\n        kyber = IKyberNetworkProxy(kyberAddress);\r\n        uniswap = IUniswapV2Router02(uniswapAddress);\r\n        weth = IWeth(wethAddress);\r\n        dai = IERC20(daiAddress);\r\n        beneficiary = beneficiaryAddress;\r\n    }\r\n\r\n    // fallback function <--> Compatible Syntaxis for Solidity v0.5.0\r\n    function() external payable {}\r\n\r\n    // This is the function that will be called postLoan\r\n    // i.e. Encode the logic to handle your flashloaned funds here\r\n    // The arbitrage opeartion will be executed in this function\r\n    function callFunction(\r\n        address sender,\r\n        Account.Info memory account,\r\n        bytes memory data\r\n    ) public {\r\n        ArbInfo memory arbInfo = abi.decode(data, (ArbInfo));\r\n\r\n        // Get the DAI Balance on this contract after the flashloan was executed!\r\n        uint daiBalance = dai.balanceOf(address(this));\r\n\r\n        // Determine the direction of the Arbitrage Operation\r\n        if(arbInfo.direction == Direction.KyberToUniswap) {\r\n            // Buy ETH on Kyber, Sell it on Uniswap\r\n\r\n            // BUY ETH on Kyber\r\n            dai.approve(address(kyber),daiBalance);\r\n            // Calculate the expectedRate of swapping all the DAI balance this contract is holding for ETH\r\n            (uint expectedRate, ) = kyber.getExpectedRate(\r\n                dai, \r\n                IERC20(KYBER_ETH_ADDRESS), \r\n                daiBalance\r\n            );\r\n            // Swap all the DAI balance this contract is holding for ETH\r\n            kyber.swapTokenToEther(dai, daiBalance, expectedRate);\r\n\r\n            // Sell ETH on Uniswap\r\n            address[] memory path = new address[](2);   // path array to swap from ETH to DAI\r\n            path[0] = address(weth);\r\n            path[1] = address(dai);\r\n            // Calculate the minium amount of DAI in exchange for all the ETH this contract is holding\r\n            uint[] memory minOuts = uniswap.getAmountsOut(address(this).balance, path); // Will return only one value, because the path array only makes one swap <-> From WETH to DAI\r\n            // Swap all the ETH balance this contract is holding for the most possible amount of DAI\r\n            uniswap.swapExactETHForTokens.value(address(this).balance)(\r\n                minOuts[1], \r\n                path, \r\n                address(this), \r\n                now\r\n            );\r\n        } else {\r\n            // Buy ETH on Uniswap, Sell it on Kyber\r\n\r\n            // BUY ETH on Uniswap\r\n            dai.approve(address(uniswap),daiBalance);\r\n            address[] memory path = new address[](2);   // path array to swap from DAI to ETH\r\n            path[0] = address(dai);\r\n            path[1] = address(weth);\r\n            // Calculate the minium amount of ETH in exchange for all the DAI this contract is holding\r\n            uint[] memory minOuts = uniswap.getAmountsOut(daiBalance, path); // Will return only one value, because the path array only makes one swap <-> From DAI to WETH\r\n            // Swap all the DAI balance this contract is holding for the most possible amount of ETH\r\n            uniswap.swapExactTokensForETH(\r\n                daiBalance,\r\n                minOuts[1], \r\n                path, \r\n                address(this), \r\n                now\r\n            );\r\n\r\n            // Sell ETH on Kyber\r\n            // Calculate the expectedRate of swapping all the ETH balance this contract is holding for DAI\r\n            (uint expectedRate, ) = kyber.getExpectedRate(\r\n                IERC20(KYBER_ETH_ADDRESS),\r\n                dai,\r\n                address(this).balance\r\n            );\r\n            // Swap all the ETH balance this contract is holding for DAI\r\n            kyber.swapEtherToToken.value(address(this).balance)(\r\n                dai,\r\n                expectedRate\r\n            );\r\n        }\r\n\r\n        // Validate there is enough DAI balance on this contract after the arbitrage operation to repay the dy/dx flashloan\r\n        require(dai.balanceOf(address(this)) >= arbInfo.repayAmount, \"Not enough DAI to repay the dy/dx flashloan\");\r\n\r\n        // Withdraw the profit from the flashloan and send it to an address of our own\r\n        uint profit = dai.balanceOf(address(this)) - arbInfo.repayAmount;\r\n        dai.transferFrom(address(this), beneficiary, profit);\r\n\r\n        emit NewArbitrage(arbInfo.direction, profit, now);\r\n    }\r\n\r\n    // This function is called to initiate the entire process, ask for the flashloan, then run the arbitrage operation, repay the flashloan and withdraw the profits\r\n    function initiateFlashloan(\r\n        address _solo, \r\n        address _token, \r\n        uint256 _amount,\r\n        Direction _direction\r\n    ) external {\r\n        ISoloMargin solo = ISoloMargin(_solo);\r\n\r\n        // Get marketId from token address\r\n        uint256 marketId = _getMarketIdFromTokenAddress(_solo, _token);\r\n\r\n        // Calculate repay amount (_amount + (2 wei))\r\n        // Approve transfer from\r\n        uint256 repayAmount = _getRepaymentAmountInternal(_amount);\r\n        IERC20(_token).approve(_solo, repayAmount);\r\n\r\n        // 1. Withdraw $\r\n        // 2. Call callFunction(...)\r\n        // 3. Deposit back $\r\n        Actions.ActionArgs[] memory operations = new Actions.ActionArgs[](3);\r\n\r\n        operations[0] = _getWithdrawAction(marketId, _amount);\r\n        operations[1] = _getCallAction(\r\n            // Encode ArbInfo for callFunction\r\n            abi.encode(ArbInfo({direction: _direction, repayAmount: repayAmount}))\r\n        );\r\n        operations[2] = _getDepositAction(marketId, repayAmount);\r\n\r\n        Account.Info[] memory accountInfos = new Account.Info[](1);\r\n        accountInfos[0] = _getAccountInfo();\r\n\r\n        solo.operate(accountInfos, operations);\r\n    }\r\n}",
  "sourcePath": "/mnt/c/pr0/blockchain-projects/profitable_flashloans/contracts/Flashloan.sol",
  "compiler": {
    "name": "solc",
    "version": "0.5.17+commit.d19bba13.Emscripten.clang"
  },
  "schemaVersion": "3.4.4",
  "updatedAt": "2022-10-29T03:38:07.282Z",
  "devdoc": {
    "methods": {}
  },
  "userdoc": {
    "methods": {}
  }
}